:020000040800F2
:1000000000500020C59C0008A52C0008A72C000863
:10001000A92C0008AB2C0008AD2C00080000000043
:10002000000000000000000000000000018D00083A
:10003000AF2C000800000000A18D0008E58D00082D
:100040000D9D00080D9D00080D9D00080D9D0008E8
:100050000D9D00080D9D00080D9D00080D9D0008D8
:100060000D9D00080D9D00080D9D00080D9D0008C8
:100070000D9D00080D9D00080D9D00080D9D0008B8
:100080000D9D00080D9D00080D9D00080D9D0008A8
:10009000B12C00080D9D00080D9D00080D9D000865
:1000A0000D9D00080D9D00080D9D00080D9D000888
:1000B0000D9D00080D9D0008C12C00080D9D000835
:1000C0000D9D00080D9D00080D9D00080D9D000868
:1000D0000D9D0008D12C0008E12C0008F12C00082F
:1000E0000D9D00080D9D00080D9D000800000000FA
:1000F0000000000000000000000000000000000000
:0C01000000000000000000005FF808F1A3
:1001100010B5054C237833B9044B13B10448AFF341
:1001200000800123237010BDEC05002000000000BA
:1001300008AA000808B5034B1BB103490348AFF3F5
:10014000008008BD00000000F005002008AA00089B
:1001500081F0004102E000BF83F0004330B54FEA78
:1001600041044FEA430594EA050F08BF90EA020FE5
:100170001FBF54EA000C55EA020C7FEA645C7FEA78
:10018000655C00F0E2804FEA5454D4EB5555B8BF9B
:100190006D420CDD2C4480EA020281EA030382EA0C
:1001A000000083EA010180EA020281EA0303362D9E
:1001B00088BF30BD11F0004F4FEA01314FF4801C71
:1001C0004CEA113102D0404261EB410113F0004F83
:1001D0004FEA03334CEA133302D0524263EB43033A
:1001E00094EA050F00F0A780A4F10104D5F1200ED8
:1001F0000DDB02FA0EFC22FA05F2801841F1000133
:1002000003FA0EF2801843FA05F359410EE0A5F106
:1002100020050EF1200E012A03FA0EFC28BF4CF037
:10022000020C43FA05F3C01851EBE37101F00045ED
:1002300007D54FF0000EDCF1000C7EEB00006EEBFA
:100240000101B1F5801F1BD3B1F5001F0CD3490884
:100250005FEA30004FEA3C0C04F101044FEA4452DB
:1002600012F5800F80F09A80BCF1004F08BF5FEA62
:10027000500C50F1000041EB045141EA050130BD42
:100280005FEA4C0C404141EB0101013C28BFB1F554
:10029000801FE9D291F0000F04BF01460020B1FA9F
:1002A00081F308BF2033A3F10B03B3F120020CDA72
:1002B0000C3208DD02F1140CC2F10C0201FA0CF050
:1002C00021FA02F10CE002F11402D8BFC2F1200CB5
:1002D00001FA02F120FA0CFCDCBF41EA0C0190406B
:1002E000E41AA2BF01EB0451294330BD6FEA0404B4
:1002F0001F3C1CDA0C340EDC04F11404C4F120029F
:1003000020FA04F001FA02F340EA030021FA04F3B0
:1003100045EA030130BDC4F10C04C4F1200220FA07
:1003200002F001FA04F340EA0300294630BD21FA45
:1003300004F0294630BD94F0000F83F4801306BF0B
:1003400081F480110134013D4EE77FEA645C18BFFF
:100350007FEA655C29D094EA050F08BF90EA020F96
:1003600005D054EA000C04BF1946104630BD91EA8E
:10037000030F1EBF0021002030BD5FEA545C05D191
:100380004000494128BF41F0004130BD14F58004D0
:100390003CBF01F5801130BD01F0004545F0FE4144
:1003A00041F470014FF0000030BD7FEA645C1ABF79
:1003B000194610467FEA655C1CBF0B46024650EAB0
:1003C000013406BF52EA033591EA030F41F40021DC
:1003D00030BD00BF90F0000F04BF0021704730B562
:1003E0004FF4806404F132044FF000054FF0000137
:1003F00050E700BF90F0000F04BF0021704730B5F8
:100400004FF4806404F1320410F0004548BF4042CC
:100410004FF000013EE700BF42004FEAE2014FEA21
:1004200031014FEA02701FBF12F07F4393F07F4FFC
:1004300081F06051704732F07F4208BF704793F0FF
:100440007F4F04BF41F40021704730B54FF4607412
:1004500001F0004521F000411CE700BF50EA010215
:1004600008BF704730B54FF000050AE050EA0102BE
:1004700008BF704730B511F0004502D5404261EB2E
:1004800041014FF4806404F132045FEA915C3FF46F
:10049000D8AE4FF003025FEADC0C18BF03325FEA0C
:1004A000DC0C18BF033202EBDC02C2F1200300FABD
:1004B00003FC20FA02F001FA03FE40EA0E0021FAE2
:1004C00002F11444BDE600BF4FEA410212F50012EA
:1004D00015D211D56FF47873B3EB625212D94FEA8B
:1004E000C12343F0004343EA505311F0004F23FA75
:1004F00002F018BF404270474FF00000704750EACA
:10050000013005D111F0004008BF6FF00040704786
:100510004FF00000704700BF4FEA4102B2F1E043E4
:1005200024BFB3F5001CDCF1FE5C0DD901F0004CDA
:100530004FEAC0024CEA5070B2F1004F40EB83002A
:1005400008BF20F00100704711F0804F21D113F156
:100550003872BCBF01F00040704741F480114FEA8F
:100560005252C2F11802C2F1200C10FA0CF320FA18
:1005700002F018BF40F001004FEAC1234FEAD32335
:1005800003FA0CFC40EA0C0023FA02F34FEA43039F
:10059000CCE77FEA625307D150EA01331EBF4FF028
:1005A000FE4040F44000704701F0004040F0FE4043
:1005B00040F40000704700BF80F0004002E000BF40
:1005C00081F0004142001FBF5FEA410392EA030F3E
:1005D0007FEA226C7FEA236C6AD04FEA1262D2EB88
:1005E0001363C1BFD218414048404140B8BF5B428D
:1005F000192B88BF704710F0004F40F4000020F026
:100600007F4018BF404211F0004F41F4000121F03B
:100610007F4118BF494292EA030F3FD0A2F1010285
:1006200041FA03FC10EB0C00C3F1200301FA03F1C3
:1006300000F0004302D5494260EB4000B0F5000FE6
:1006400013D3B0F1807F06D340084FEA310102F1A5
:100650000102FE2A51D2B1F1004F40EBC25008BF57
:1006600020F0010040EA03007047490040EB000021
:10067000013A28BFB0F5000FEDD2B0FA80FCACF122
:10068000080CB2EB0C0200FA0CF0AABF00EBC2504F
:1006900052421843BCBFD0401843704792F0000F3D
:1006A00081F4000106BF80F400000132013BB5E790
:1006B0004FEA41037FEA226C18BF7FEA236C21D006
:1006C00092EA030F04D092F0000F08BF084670476B
:1006D00090EA010F1CBF0020704712F07F4F04D139
:1006E000400028BF40F00040704712F100723CBF4C
:1006F00000F50000704700F0004343F0FE4040F476
:10070000000070477FEA226216BF08467FEA236333
:100710000146420206BF5FEA412390EA010F40F41E
:10072000800070474FF0000304E000BF10F000436A
:1007300048BF40425FEA000C08BF704743F0964351
:1007400001464FF000001CE050EA010208BF70476C
:100750004FF000030AE000BF50EA010208BF7047F3
:1007600011F0004302D5404261EB41015FEA010C08
:1007700002BF84460146002043F0B64308BFA3F100
:100780008053A3F50003BCFA8CF2083AA3EBC253E2
:1007900010DB01FA02FC634400FA02FCC2F1200201
:1007A000BCF1004F20FA02F243EB020008BF20F038
:1007B0000100704702F1200201FA02FCC2F120029E
:1007C00050EA4C0021FA02F243EB020008BF20EA93
:1007D000DC7070474FF0FF0C1CEAD0521EBF1CEAC1
:1007E000D15392EA0C0F93EA0C0F6FD01A4480EAAF
:1007F000010C400218BF5FEA41211ED04FF0006398
:1008000043EA501043EA5111A0FB01310CF00040C3
:10081000B1F5000F3EBF490041EAD3715B0040EAE9
:10082000010062F17F02FD2A1DD8B3F1004F40EBB9
:10083000C25008BF20F00100704790F0000F0CF08C
:10084000004C08BF49024CEA502040EA51207F3A50
:10085000C2BFD2F1FF0340EAC250704740F400002B
:100860004FF00003013A5DDC12F1190FDCBF00F01C
:1008700000407047C2F10002410021FA02F1C2F1CA
:10088000200200FA02FC5FEA310040F1000053EA66
:100890004C0308BF20EADC70704792F0000F00F0B4
:1008A000004C02BF400010F4000F013AF9D040EABA
:1008B0000C0093F0000F01F0004C02BF490011F44E
:1008C000000F013BF9D041EA0C018FE70CEAD1534C
:1008D00092EA0C0F18BF93EA0C0F0AD030F0004CCC
:1008E00018BF31F0004CD8D180EA010000F0004080
:1008F000704790F0000F17BF90F0004F084691F03E
:10090000000F91F0004F14D092EA0C0F01D1420277
:100910000FD193EA0C0F03D14B0218BF084608D140
:1009200080EA010000F0004040F0FE4040F400008A
:10093000704740F0FE4040F4400070474FF0FF0C1D
:100940001CEAD0521EBF1CEAD15392EA0C0F93EA64
:100950000C0F69D0A2EB030280EA010C49024FEAB6
:10096000402037D04FF0805343EA111143EA10136F
:100970000CF000408B4238BF5B0042F17D024FF427
:10098000000C8B4224BF5B1A40EA0C00B3EB510F02
:1009900024BFA3EB510340EA5C00B3EB910F24BFEB
:1009A000A3EB910340EA9C00B3EBD10F24BFA3EB70
:1009B000D10340EADC001B0118BF5FEA1C1CE0D138
:1009C000FD2A3FF650AF8B4240EBC25008BF20F0EB
:1009D000010070470CF0004C4CEA50207F32C2BF3F
:1009E000D2F1FF0340EAC250704740F400004FF0DC
:1009F0000003013A37E792F0000F00F0004C02BF0D
:100A0000400010F4000F013AF9D040EA0C0093F0D6
:100A1000000F01F0004C02BF490011F4000F013B30
:100A2000F9D041EA0C0195E70CEAD15392EA0C0F98
:100A300008D142027FF47DAF93EA0C0F7FF470AFD0
:100A4000084676E793EA0C0F04D14B023FF44CAF13
:100A500008466EE730F0004C18BF31F0004CCAD1A8
:100A600030F000427FF45CAF31F000437FF43CAFE4
:100A70005FE700BF4FF0FF3C06E000BF4FF0010C06
:100A800002E000BF4FF0010C4DF804CD4FEA4002E8
:100A90004FEA41037FEA226C18BF7FEA236C11D032
:100AA00001B052EA530C18BF90EA010F58BFB2EBE5
:100AB000030088BFC81738BF6FEAE17018BF40F065
:100AC000010070477FEA226C02D15FEA402C05D119
:100AD0007FEA236CE4D15FEA412CE1D05DF8040B9E
:100AE000704700BF844608466146FFE70FB5FFF731
:100AF000C9FF002848BF10F1000F0FBD4DF808EDE9
:100B0000FFF7F4FF0CBF012000205DF808FB00BFD9
:100B10004DF808EDFFF7EAFF34BF012000205DF833
:100B200008FB00BF4DF808EDFFF7E0FF94BF012080
:100B300000205DF808FB00BF4DF808EDFFF7D2FF7D
:100B400094BF012000205DF808FB00BF4DF808EDC0
:100B5000FFF7C8FF34BF012000205DF808FB00BF8D
:100B60004FEA4002B2F1FE4F0FD34FF09E03B3EBBA
:100B700012620DD94FEA002343F0004310F0004FFA
:100B800023FA02F018BF404270474FF00000704750
:100B900012F1610F01D1420205D110F0004008BFEF
:100BA0006FF0004070474FF00000704770B54FF095
:100BB000FF0C4CF4E06C1CEA11541DBF1CEA1355E9
:100BC00094EA0C0F95EA0C0F00F0DEF82C4481EA51
:100BD000030621EA4C5123EA4C5350EA013518BF71
:100BE00052EA033541F4801143F4801338D0A0FB5E
:100BF00002CE4FF00005E1FB02E506F00042E0FB0B
:100C000003E54FF00006E1FB03569CF0000F18BF10
:100C10004EF0010EA4F1FF04B6F5007F64F54074B8
:100C200004D25FEA4E0E6D4146EB060642EAC6214B
:100C300041EA55514FEAC52040EA5E504FEACE2EB8
:100C4000B4F1FD0C88BFBCF5E06F1ED8BEF1004FBB
:100C500008BF5FEA500E50F1000041EB045170BD37
:100C600006F0004646EA010140EA020081EA03017B
:100C7000B4EB5C04C2BFD4EB0C0541EA045170BD77
:100C800041F480114FF0000E013C00F3AB8014F1F1
:100C9000360FDEBF002001F0004170BDC4F100043A
:100CA000203C35DA0C341BDC04F11404C4F12005BB
:100CB00000FA05F320FA04F001FA05F240EA020016
:100CC00001F0004221F0004110EBD37021FA04F64C
:100CD00042EB06015EEA430E08BF20EAD37070BD06
:100CE000C4F10C04C4F1200500FA04F320FA05F065
:100CF00001FA04F240EA020001F0004110EBD37067
:100D000041F100015EEA430E08BF20EAD37070BDD6
:100D1000C4F1200500FA05F24EEA020E20FA04F3AF
:100D200001FA05F243EA020321FA04F001F000415E
:100D300021FA04F220EA020000EBD3705EEA430ECF
:100D400008BF20EAD37070BD94F0000F0FD101F0FE
:100D50000046400041EB010111F4801F08BF013C37
:100D6000F7D041EA060195F0000F18BF704703F075
:100D70000046520043EB030313F4801F08BF013DFC
:100D8000F7D043EA0603704794EA0C0F0CEA1355B8
:100D900018BF95EA0C0F0CD050EA410618BF52EA72
:100DA0004306D1D181EA030101F000414FF0000078
:100DB00070BD50EA410606BF1046194652EA430686
:100DC00019D094EA0C0F02D150EA013613D195EAFA
:100DD0000C0F05D152EA03361CBF104619460AD142
:100DE00081EA030101F0004141F0FE4141F470014C
:100DF0004FF0000070BD41F0FE4141F4780170BD3C
:100E000070B54FF0FF0C4CF4E06C1CEA11541DBFA0
:100E10001CEA135594EA0C0F95EA0C0F00F0A7F8A2
:100E2000A4EB050481EA030E52EA03354FEA0131CF
:100E300000F088804FEA03334FF0805545EA1313E2
:100E400043EA12634FEA022245EA111545EA1065AA
:100E50004FEA00260EF000419D4208BF964244F141
:100E6000FD0404F5407402D25B084FEA3202B61A60
:100E700065EB03055B084FEA32024FF480104FF434
:100E8000002CB6EB020E75EB030E22BFB61A7546A8
:100E900040EA0C005B084FEA3202B6EB020E75EB3B
:100EA000030E22BFB61A754640EA5C005B084FEAA3
:100EB0003202B6EB020E75EB030E22BFB61A754670
:100EC00040EA9C005B084FEA3202B6EB020E75EB7B
:100ED000030E22BFB61A754640EADC0055EA060E3C
:100EE00018D04FEA051545EA16754FEA06164FEA7F
:100EF000C30343EA52734FEAC2025FEA1C1CC0D12B
:100F000011F4801F0BD141EA00014FF000004FF0B7
:100F1000004CB6E711F4801F04BF01430020B4F178
:100F2000FD0C88BFBCF5E06F3FF6AFAEB5EB030C30
:100F300004BFB6EB020C5FEA500C50F1000041EB2D
:100F4000045170BD0EF0004E4EEA113114EB5C04FA
:100F5000C2BFD4EB0C0541EA045170BD41F48011CD
:100F60004FF0000E013C90E645EA060E8DE60CEAD5
:100F7000135594EA0C0F08BF95EA0C0F3FF43BAFF2
:100F800094EA0C0F0AD150EA01347FF434AF95EAA9
:100F90000C0F7FF425AF104619462CE795EA0C0F8D
:100FA00006D152EA03353FF4FDAE1046194622E75A
:100FB00050EA410618BF52EA43067FF4C5AE50EA34
:100FC00041047FF40DAF52EA43057FF4EBAE12E724
:100FD0004FF0FF3C06E000BF4FF0010C02E000BF05
:100FE0004FF0010C4DF804CD4FEA410C7FEA6C5CE8
:100FF0004FEA430C18BF7FEA6C5C1BD001B050EA8B
:10100000410C0CBF52EA430C91EA030F02BF90EA75
:10101000020F0020704710F1000F91EA030F58BF34
:10102000994208BF90422CBFD8176FEAE37040F096
:10103000010070474FEA410C7FEA6C5C02D150EA34
:10104000013C07D14FEA430C7FEA6C5CD6D152EAEF
:10105000033CD3D05DF8040B704700BF84461046B4
:1010600062468C461946634600E000BF01B5FFF7B3
:10107000B7FF002848BF10F1000F01BD4DF808ED83
:10108000FFF7F4FF0CBF012000205DF808FB00BF54
:101090004DF808EDFFF7EAFF34BF012000205DF8AE
:1010A00008FB00BF4DF808EDFFF7E0FF94BF0120FB
:1010B00000205DF808FB00BF4DF808EDFFF7CEFFFC
:1010C00094BF012000205DF808FB00BF4DF808ED3B
:1010D000FFF7C4FF34BF012000205DF808FB00BF0C
:1010E0004FEA410C7FEA6C5C02D150EA013C0AD124
:1010F0004FEA430C7FEA6C5C02D152EA033C02D116
:101100004FF0000070474FF00100704710B584B0F9
:101110004FF0FF3402940192009301230A4600FA33
:1011200003F1034802F0CCFF002004B010BD00BF63
:10113000C812002010B584B040004FF0FF34029474
:101140000192009301230A4640EA0301024803F09A
:1011500069F8002004B010BDC81200200000000093
:101160002DE9F04F8FB00646029193460DF1210311
:1011700001930DF1220300930DAB04AA09A90BA85A
:1011800000F04EFA002840F0C780BDF8223013F47A
:10119000807F00F0C3800498FFF7C8FA4FF04251F7
:1011A000FFF718FB82460598FFF7C0FA4FF042514F
:1011B000FFF710FB05460698FFF7B8FA4FF04251CB
:1011C000FFF708FB04460798FFF7B0FA4FF04251CB
:1011D000FFF700FB07464FF040412846FFF7FAFAB9
:1011E00081463946FFF7F6FA804651465046FFF7EA
:1011F000E9F903902146FFF7EDFA01464046FFF773
:10120000E1F9FFF709F908F06FFE45A3D3E90023E0
:10121000FFF7CCFCFFF780F9306021462046FFF74E
:10122000D1F980463946FFF7D5FA06462946039894
:10123000FFF7D0FA01463046FFF7C4F906462946C3
:101240004846FFF7C7FA814621464046FFF7C2FAF3
:1012500001464846FFF7B4F94FF07E51FFF7B2F967
:10126000FFF7DAF8804689463046FFF7D5F8424660
:101270004B4608F061FE2AA3D3E90023FFF796FC52
:10128000FFF74AF9029B186021462846FFF7A2FAA9
:10129000064639465046FFF79DFA01463046FFF7AD
:1012A00091F90146FFF78EF9064651465046FFF781
:1012B00091FA804629462846FFF78CFA01464046B7
:1012C000FFF780F9054621462046FFF783FA0146DD
:1012D0002846FFF775F9044639463846FFF77AFA8B
:1012E00001462046FFF76CF9FFF796F804460D46D5
:1012F0003046FFF791F822462B4608F01DFE08A362
:10130000D3E90023FFF752FCFFF706F9CBF8000002
:1013100000200FB0BDE8F08F0120FAE70220F8E7C7
:101320006666666666A64C40704700007C4B9B7AFA
:10133000002B00F0D48000B583B000238DF8073077
:10134000774B586819680DF107030122C97B0078B3
:10135000FFF7DCFE002840F0C580714B5868196823
:101360000DF10703012249790078FFF7CFFE00282D
:1013700040F0BB806A4B586819680DF107030122E1
:1013800009790078FFF7C2FE002840F0B180644B75
:1013900093F82430002B52D00C238DF80730604B8B
:1013A000586819680DF10703012209790078FFF7E1
:1013B000ADFE002840F09F80322001F04FFFC02397
:1013C0008DF80730564B9B7A13F0010F02D0E023C3
:1013D0008DF80730524B586819680DF10703012248
:1013E00009790078FFF792FE002840F087804C4B87
:1013F0005B7C03B302238DF80730494B58681968AA
:101400000DF107030122C97B0078FFF77FFE00285A
:1014100077D100238DF80730414B586819680DF1DA
:101420000703012249790078FFF770FE00286BD18D
:1014300003B05DF804FB00238DF80730DDE70423DB
:101440008DF80730364B586819680DF107030122F3
:1014500009790078FFF75AFE002858D1304B9B7C61
:1014600023B92F4B9B7A13F0010F30D140238DF815
:1014700007302B4B586819680DF1070301220979D1
:101480000078FFF743FE002844D1322001F0E6FE49
:10149000234B5B7CFBB101238DF80730204B586850
:1014A00019680DF107030122C97B0078FFF72EFEB2
:1014B00098BB1B4B586853F8101B012249790078E0
:1014C000FFF724FE0028B3D04FF0FF30B0E76023D1
:1014D0008DF80730CDE700238DF80730DEE74FF0B9
:1014E000FF3070474FF0FF30A2E74FF0FF309FE72B
:1014F0004FF0FF309CE74FF0FF3099E74FF0FF309F
:1015000096E74FF0FF3093E74FF0FF3090E74FF052
:10151000FF308DE74FF0FF308AE74FF0FF3087E76D
:10152000000000202E4B93F82430002B49D0F0B55A
:1015300083B005460F461646294B9B7A002B43D0B5
:10154000274B5868196801AB0222897A0078FFF7A7
:10155000F1FD00283BD19DF804009DF8054044EAC8
:101560000024AC4223D31E4B58684388B4EB530F7E
:101570000DD91B4B196801AB0122497C0078FFF79C
:10158000D9FD38BB9DF8043013F0100F14D1144B63
:10159000586819683B46EAB2C97A0078FFF7CAFD75
:1015A000D8B9B4FBF5F4013C347003B0F0BD0023AE
:1015B00033704FF0FF30F8E7FFF7B8FE6FF001002F
:1015C000F3E74FF0FF3070474FF0FF30EDE74FF09B
:1015D000FF30EAE74FF0FF30E7E74FF0FF30E4E796
:1015E0000000002038B50446C578437813F0010F99
:1015F00009D005F03F00C00805F007010131074B95
:101600001B6803B19847637813F0080F04D0034BAD
:101610005B680BB1A8099847002038BD0806002078
:101620002DE9F0478CB006460F4692469846149D29
:1016300000232B80159A04A9754B987BFFF772FF46
:10164000002840F0E1808146714B5B8913F0140F54
:1016500064D09DF810209DF81100000440EA02605B
:101660009DF8122040EA02209DF813201043CAF88A
:1016700000009DF814109DF81520120442EA016242
:101680009DF8161042EA01229DF817100A43CAF885
:1016900004209DF818409DF81910090441EA0461DE
:1016A0009DF81A4041EA04219DF81B402143CAF8E5
:1016B00008109DF81CC09DF81D40240444EA0C64E9
:1016C0009DF81EC044EA0C249DF81FC044EA0C0497
:1016D000CAF80C40001400904FEA224CCDF804C028
:1016E00009140291221403920CFB0CFC00FB00C0B5
:1016F00001FB010102FB021202F17142B2F1007F13
:1017000005D82A8842F480722A80102207E0FFF769
:101710000DFE00232B804FF0FF396CE0002213F008
:10172000400F2FD002F13001694411F8204C02F132
:1017300031010DEB010010F8201C41EA0421398031
:1017400002F13201694411F8204C02F133010DEB32
:10175000010010F8201C41EA0421798002F13401D3
:10176000694411F8204C02F135010DEB010010F82D
:10177000201C41EA0421B9800632D2B2298841F006
:101780000801298013F4C07F2FD002F13001694491
:1017900011F8204C02F131010DEB010010F8201C72
:1017A00041EA0421318002F13201694411F8204CF0
:1017B00002F133010DEB010010F8201C41EA042175
:1017C000718002F13401694411F8204C02F13501B5
:1017D0000DEB010010F8201C41EA0421B180063213
:1017E000D2B2298841F07001298013F0030F06D18D
:1017F0004046FFF799FD48460CB0BDE8F08704ABC2
:101800009818FFF7EFFEF3E74FF0FF39F3E700BF5B
:101810000806002010B582B08DF80700F1B1012252
:101820000221114802F01BF90F4C00222021204612
:1018300002F015F94FF47A7301220DF107010B48FC
:1018400004F0FFFA01222021204602F008F90122CB
:101850000221204602F003F902B010BD002202214D
:10186000014802F0FCF8DFE7000C01401C130020E7
:1018700010B50446A1F150000021C0B2FFF7CAFF25
:101880000234C4F30310002140F01000FFF7C2FF40
:10189000002104F00F00FFF7BDFF10BD08B50021C7
:1018A0008D20FFF7B7FF00211420FFF7B3FF0021C1
:1018B000AF20FFF7AFFF08BD38B500250AE00121D2
:1018C0000020FFF7A7FF0134E4B214F0800FF6D038
:1018D0000135EDB2072D0FD8A5F150000021C0B29F
:1018E000FFF798FF00210220FFF794FF002110204E
:1018F000FFF790FF0024E8E738BD0000F8B5074681
:101900000E46A2F12005EDB210F0800F05D1314650
:101910003846FFF7ADFF00240CE00236F6B2002790
:10192000F5E704EB051301210D4AD05CFFF772FFC8
:101930000134E4B2072CF4D9711CC9B23846FFF760
:1019400097FF002409E004EB051308330121044A42
:10195000D05CFFF75FFF0134E4B2072CF3D9F8BD88
:10196000E8AA00080246012002E002FB00F0194646
:101970004B1EDBB20029F8D1704700002DE9F0477B
:101980008146884617461D469DF820A0002634460D
:1019900019E04FEA5A0004FB00F0C0B2484420228C
:1019A0004146C0B2FFF7AAFF0BE04FEA5A0004FB22
:1019B00000F0C0B230324844D2B24146C0B2FFF764
:1019C0009DFF0134E4B2AC421CD2291BC9B20139DB
:1019D000C9B20A20FFF7C6FFB7FBF0F00A4AA2FB24
:1019E000003C4FEADC0C0CEB8C0CA0EB4C0C5FFACF
:1019F0008CF2002ED9D16B1E9C42D6DA002AC8D0B8
:101A00000126D2E7BDE8F087CDCCCCCCF8B50446B2
:101A10000E461746002501E00135EDB27A5D5AB158
:101A200031462046FFF76AFF0834E4B2782CF3D938
:101A30000236F6B20024EFE7F8BD000010B5424CC4
:101A400000224021204602F00AF8C82001F006FCDE
:101A500001224021204602F002F80021AE20FFF7CB
:101A6000D9FE00210220FFF7D5FE00211020FFF74C
:101A7000D1FE00214020FFF7CDFE00218120FFF79D
:101A8000C9FE0021CF20FFF7C5FE0021A120FFF7EE
:101A9000C1FE0021C820FFF7BDFE0021A620FFF7F0
:101AA000B9FE0021A820FFF7B5FE00213F20FFF777
:101AB000B1FE0021D320FFF7ADFE00210846FFF75D
:101AC000A9FE0021D520FFF7A5FE00218020FFF709
:101AD000A1FE0021D920FFF79DFE0021F120FFF794
:101AE00099FE0021DA20FFF795FE00211220FFF772
:101AF00091FE0021DB20FFF78DFE00214020FFF743
:101B000089FE00212020FFF785FE00210220FFF73B
:101B100081FE00218D20FFF77DFE00211420FFF7BC
:101B200079FE0021A420FFF775FE0021A620FFF713
:101B300071FE0021AF20FFF76DFE0021AF20FFF7FF
:101B400069FEFFF7B9FE10BD0008014000B585B081
:101B500000230193029303931048114A02608360AB
:101B6000037303754FF46022C26143600123036174
:101B700001F012FD60B90123019302930023039346
:101B800001A9064801F082FB28B905B05DF804FB05
:101B900000F066FFEFE700F063FFF6E718060020AD
:101BA0000024014000B585B0002301930293039304
:101BB0001148124A02608360037303754FF4602278
:101BC000C26143600123036101F0E6FC68B90423AC
:101BD0000193012302930023039301A9064801F016
:101BE00055FB28B905B05DF804FB00F039FFEEE7BE
:101BF00000F036FFF6E700BF48060020002801404D
:101C000000B589B0002304930593069307930368F6
:101C1000204A934205D0204A93421ED009B05DF875
:101C200004FB1E4B9A6942F400729A619A6902F4AD
:101C300000720092009A9A6942F004029A619B69CC
:101C400003F004030193019B0223049303230593F0
:101C500004A9134801F0EAFDE0E7104B9A6942F449
:101C600080629A619A6902F480620292029A9A6989
:101C700042F004029A619B6903F004030393039BFF
:101C8000102304930323059304A9054801F0CEFD16
:101C9000C4E700BF002401400028014000100240BA
:101CA0000008014008B507F0EDFD01220849094888
:101CB00005F0F1F801220849084805F0ECF8012286
:101CC0000749084805F0E7F8642006F085FFFBE7C0
:101CD000E40D002094140020F80D0020D8140020FA
:101CE0000C0E00201C15002000B583B0FFF7A6FEE7
:101CF000FFF7E2FDFFF7D2FDC5E0804B1B78012B1B
:101D00002AD07E4B1B78002B40F0C2807C4A0021F9
:101D10000846FFF77BFE7B4A02210020FFF776FE94
:101D2000794A04210020FFF771FE784A062100203D
:101D3000FFF76CFE102400940423754A12680221F8
:101D40004120FFF71BFE00940423724A12681946D3
:101D50004120FFF713FE9BE06F4A00210846FFF782
:101D600055FE6E4A02210020FFF750FE6C4A042106
:101D70000020FFF74BFE654A06210020FFF746FED4
:101D8000102400940423674A126802214120FFF7BF
:101D9000F5FD00940423644A126819464120FFF7B8
:101DA000EDFDAEE7614A00210846FFF72FFE604ACD
:101DB00002210020FFF72AFE5E4A04210020FFF7DF
:101DC00025FE524A06210020FFF720FE1024009431
:101DD0000423594A127802214120FFF7CFFD0094D5
:101DE0000423564A127819464120FFF7C7FD57E0F1
:101DF000534A02210020FFF709FE66E0514A042100
:101E00000020FFF703FE6CE04F4A06210020FFF799
:101E1000FDFD4E494E4B1868FEF7DCFCFEF7A0FEB8
:101E200010240094042380EAE072A2EBE072022105
:101E30004120FFF7A3FD4549464B1868FEF7CAFC51
:101E4000FEF78EFE80EAE072A2EBE07202EB820205
:101E500000940423520019464120FFF78FFD3B49AF
:101E60003D4B1868FEF7B6FCFEF77AFE009404239B
:101E700080EAE072A2EBE07206214120FFF77EFDCE
:101E8000282006F0A9FE354B1B78012B3FF435AF17
:101E9000324B1B78002BF3D1184B1B78012B81D0D0
:101EA000164B1B78002BEBD12D4A00210846FFF77B
:101EB000ADFD0021264B1868FEF73EFE002897D0A6
:101EC000284A02210020FFF7A1FD0021214B1868BC
:101ED000FEF732FE002891D0234A04210020FFF7AC
:101EE00095FD00211C4B1868FEF726FE00288BD0BC
:101EF0001E4A06210020FFF789FD8AE7EE08002030
:101F000048B1000858B1000864B1000838B10008B1
:101F10006C0B0020700B002010B1000820B10008ED
:101F20002CB10008F8080020FC08002070B100085F
:101F300080B100088CB100080109002000090020D0
:101F4000B4B10008CCB10008E4B1000800002041A1
:101F5000100E0020140E0020180E0020ED080020A6
:101F600098B10008A8B10008C0B10008D8B10008B5
:101F700030B58DB006AC5A4D0FCD0FC495E80300B7
:101F800044F8040B24F8021B090C2170554A03ABDA
:101F900007CA03C323F8022B120C1A70524A01AB72
:101FA00092E8030083E803006BE1504B1B78052B9C
:101FB0006CD8DFE803F00314253647584C4B002259
:101FC0001A704A4B59789A7802EBC11249490A6053
:101FD000DA781B7903EBC213474A136059E0444B8C
:101FE00001221A70414B59789A7802EBC11241498B
:101FF0000A60DA781B7903EBC2133F4A136048E0AA
:102000003B4B03221A70394B59789A7802EBC11274
:1020100038490A60DA781B7903EBC213364A136039
:1020200037E0334B04221A70304B59789A7802EB20
:10203000C11230490A60DA781B7903EBC2132E4AC9
:10204000136026E02A4B02221A70284B59789A789E
:1020500002EBC11227490A60DA781B7903EBC2133D
:10206000254A136015E0214B59789A7802EBC1128A
:1020700022490A60D9781A7902EBC11220490A6014
:102080005A799B7903EBC2131E4A1360184B002246
:102090001A7000231C4A1268934204D2134A00218A
:1020A000D1540133F6E70023174A1360174A13701F
:1020B000ECE0174B1978174A11705A78164B1A70C2
:1020C000002303E0124A0021D1540133134A12685D
:1020D0009342F7D30023114A1360114A1370DAE0D8
:1020E000ECB1000804B2000820AA0008D40D0020BA
:1020F000D0080020CC0D0020D00D0020340000209E
:10210000300000202C000020DC0D0020E00D00201D
:10211000E80D00200109002000090020F00D00203A
:10212000F40D0020624A0021D1540133614A126843
:102130009342F7D300235F4A13605F4A13705F4AEC
:102140005F496048FFF70CF85F4D284601F084F9BD
:102150005E4C204601F080F9284601F093F85C4B74
:102160001860204601F08EF85A4B18605A4C4FF414
:102170000051204601F06CFC584B18704FF40041A0
:10218000204601F065FC564B1870564B1968564CAA
:1021900084FB0132CB17C3EB621230326A4412F86F
:1021A000242C8DF81F20514880FB0152C3EBA20361
:1021B00080FB0325DA17C2EBA50202EB8202A3EB38
:1021C000420230326A4412F8242C8DF8202003EBAE
:1021D0008303A1EB430330336B4413F8243C8DF8A5
:1021E0002130434B1A6884FB0234D317C3EB6414C9
:1021F00030346C4414F8244C8DF82A4080FB02548F
:10220000C3EBA40380FB0304D817C0EBA40000EBCE
:102210008000A3EB40003030684410F8240C8DF8A7
:102220002B0003EB8303A2EB430330336B4413F81F
:10223000243C8DF82C300B46002933DBDB118DF864
:1022400005304B4201F07F0103F07F0358BF594234
:102250008DF806101346002A27DBDB118DF80730B6
:10226000534202F07F0203F07F0358BF5A428DF8B9
:102270000820082201A91F4804F047FC142006F09A
:10228000ABFC1D4B1B78002B7FF48FAE1B4B1B78D8
:10229000002B7FF40EAF084B1B78002B3FF44FAFA1
:1022A000002343E701F17F03C8E702F17F03D4E78E
:1022B000FC0D0020040E0020080E0020180E002047
:1022C000140E0020100E00201806002048060020E2
:1022D000F8080020FC080020000C0140ED08002058
:1022E000EE0800206C0B00201F85EB5167666666C8
:1022F000700B002094140020E00D0020F40D00204D
:102300002DE9F04F87B0BA4C0821204604F09CFA22
:102310000C21204604F098FAB64C0821204604F01F
:1023200093FA0C21204604F08FFAB34C002120468A
:1023300004F01CFA0821204604F018FAD5E0AF4B4F
:1023400000221A60AE4B1B68934280F2D380144681
:10235000AC4B1A60AA4B1A60AB4B1A60AB4B1A70AD
:1023600001224FF40051AA4801F079FBA94B1C70DF
:10237000C0E00023A84A1360A84A13609F4A136074
:10238000A14A1360A64D01224FF48061284601F056
:1023900066FBA44C01224FF48051204601F05FFB04
:1023A00001221146284601F05AFB01224FF48041D8
:1023B000204601F054FB8E4BD3F80090D9F824301E
:1023C00042F20F72934200F36381974A1360894B84
:1023D0001B6801935B6A42F20F72934200F35E81C5
:1023E000924A1360924B1A6892490A60924C216893
:1023F00019608D4B1868814B1B6805901B1A236070
:102400008E4807688E4C27608E4DD5F80080C0F846
:1024100000808648066804967B480468A41B2C60EC
:102420005E1A8948D0F800B08848056805FB03F0BB
:102430000BFB0600A3EB41031344854AD2F800A02E
:102440000AFB0300FDF7D6FF67A3D3E90023FEF7DD
:10245000ADFBCDE90201704E3068FDF7CBFFDDE941
:102460000223FDF77BFEFEF72FF802903060A4EB0D
:10247000080004FB05F500FB0B50A4EB48043C44AA
:1024800004FB0A00FDF7B6FF57A3D3E90023FEF7CC
:102490008DFB04460D46614F3868FDF7ABFF2246C1
:1024A0002B46FDF75BFEFEF70FF83860574B1B78A5
:1024B00023B154490A68059C121B0A6023B1504A93
:1024C000136804995B1A13600023624A1360624A1E
:1024D0001360494A12680299D1635063C9F82430E5
:1024E000019A5362322006F077FB464B1B68002BA3
:1024F000FFF625AF474B1B78042B00F2AF8001A2FB
:1025000052F823F073230008192500084D25000810
:1025100081250008B5250008414D01224FF4806156
:10252000284601F09CFA3F4C00224FF4805120468F
:1025300001F095FA00220121284601F090FA0122CB
:102540004FF48041204601F08AFA34E7344D0022EE
:102550004FF48061284601F082FA324C01224FF498
:102560008051204601F07BFA01221146284601F0F5
:1025700076FA00224FF48041204601F070FA1AE703
:10258000274D00224FF48061284601F068FA254C5F
:1025900001224FF48051204601F061FA002201210E
:1025A000284601F05CFA01224FF48041204601F0F8
:1025B00056FA00E71A4D01224FF48061284601F0D7
:1025C0004EFA184C00224FF48051204601F047FA91
:1025D00001221146284601F042FA00224FF48041C0
:1025E000204601F03CFAE6E6FCA9F1D24D62503FEC
:1025F000BC130020041400204C140020CC0D00203B
:10260000F4080020F0080020D00D0020EC08002085
:1026100000100140D0080020040900200C0900200F
:1026200000080140000C01406C0B0020700B0020E2
:10263000D8080020DC080020D4080020E40800208E
:10264000E8080020E00800203400002030000020CE
:102650002C0000200809002010090020124D012242
:102660004FF48061284601F0FAF9104C01224FF432
:102670008051204601F0F3F901221146284601F06D
:10268000EEF901224FF48041204601F0E8F992E68C
:10269000C3F57F43FF33064A136098E6C3F57F43D3
:1026A000FF33044A13609DE600080140000C01401E
:1026B0006C0B0020700B002070B5044602682D4B97
:1026C0009A4208D022682C4B9A421ED022682B4B8B
:1026D0009A4234D070BD2A4E33682A4D29782A4A4E
:1026E000D1540121284607F01DF9336801333360C6
:1026F0002B787F2B05D001222249244804F0CBFB04
:10270000E0E7234B01221A70F5E7224E3368224D91
:102710002978224AD1540121284607F003F9336869
:10272000013333602B787F2B05D001221A491C48D6
:1027300004F0B1FBCAE71B4B01221A70F5E71A4DF2
:102740002B681A4C21781A4AD1540121204607F0EF
:10275000E9F82B6801332B6023787F2B05D0012209
:102760001249144804F097FBB4E7134B01221A7086
:10277000F5E700BF00380140004400400048004039
:10278000DC0D0020E40D0020D40D00209414002066
:10279000E00D0020F00D0020F80D0020E80D0020D5
:1027A000D8140020F40D0020040E00200C0E002090
:1027B000FC0D00201C150020080E0020034B0360B8
:1027C000034B0B6080231360704700BF741200201E
:1027D0007410002010B59CB0244C0DF1540C04F181
:1027E000080EBEE80F00ACE80F009EE807008CE87A
:1027F0000700002115A806F0BAF91D4B18600DF16D
:10280000380C04F1240EBEE80F00ACE80F009EE87F
:1028100007008CE8070000210EA806F0A8F9154B68
:1028200018600DF11C0C04F1400EBEE80F00ACE87E
:102830000F009EE807008CE80700002107A806F0BB
:1028400096F90D4B1860EE4604F15C0CBCE80F00E5
:10285000AEE80F009CE807008EE8070000216846FC
:1028600006F085F9054B18601CB010BD20AA0008C1
:1028700070100020680B0020CC080020C80D00203C
:102880002DE9F04389B0002404940594069407943C
:102890003C4B9A6942F010029A619A6902F0100268
:1028A0000092009A9A6942F020029A619A6902F0B5
:1028B00020020192019A9A6942F004029A619A698F
:1028C00002F004020292029A9A6942F008029A61A6
:1028D0009B6903F008030393039B2B4D22464FF49F
:1028E0000051284601F0BBF801224FF480412846F0
:1028F00001F0B5F8DFF89490224640F24141484695
:1029000001F0ADF8224E224645F22201304601F098
:10291000A6F84FF4C04304934FF00108CDF814809B
:1029200006940227079704A9284600F07FFF4FF47A
:10293000004304930594069404A9284600F076FF0A
:1029400040F241430493CDF814800694079704A9FC
:10295000484600F06BFF45F222030493CDF8148043
:102960000694079704A9304600F060FF4FF4204317
:1029700004930594069404A9304600F057FF09B06B
:10298000BDE8F08300100240001001400008014043
:10299000000C014008B50B480B4B03600B4B436028
:1029A00000238360C3604FF480420261436183610E
:1029B000C361036201F0A6FA00B908BD00F050F847
:1029C000FBE700BFC812002000540040801A060038
:1029D00010B586B000230293039304930593026815
:1029E000154B9A4201D006B010BD144CA36943F0B8
:1029F0000803A361A36903F008030093009B4FF44D
:102A000040730293122303930323059302A90C48F6
:102A100000F00CFF0B4A536843F0E06343F00203FD
:102A20005360E36943F40013E361E36903F40013C3
:102A30000193019BD7E700BF005400400010024003
:102A4000000C01400000014008B50268034B9A42A7
:102A500000D008BD00F0F0FBFBE700BF000800401D
:102A600072B6FEE700B595B0282200210DEB0200FA
:102A700007F078F9002305930693079308930993C9
:102A8000019302930393049301220A924FF480333B
:102A90000B930E920222119212934FF4E0131393B0
:102AA0000AA802F031FDD8B90F230593022106913F
:102AB000002307934FF480620892099305A802F05F
:102AC00063FF78B9122301934FF40043039300236B
:102AD000049301A803F052F830B915B05DF804FB77
:102AE000FFF7BEFFFFF7BCFFFFF7BAFF08B500F026
:102AF00091FBFFF7B7FFFFF7C3FEFFF727F8FFF7DC
:102B000049FF00F013F800F0FDF800F031F900F093
:102B100019FA00F077FAFFF745F800F08DFA00F0A7
:102B2000A5FAFFF757FE06F01DF8FEE708B50E48B8
:102B30000E4B03604FF48273436000238360C360D5
:102B4000036143614FF4007282611022C26103622B
:102B5000436283620A23C36203F018F900B908BD17
:102B6000FFF77EFFFBE700BF1C1300200030014091
:102B700000B587B000230293039304930593026882
:102B8000124B9A4202D007B05DF804FB03F5604394
:102B90009A6942F480529A619A6902F480520092D2
:102BA000009A9A6942F004029A619B6903F0040357
:102BB0000193019BA0230293022303930323059314
:102BC00002A9034800F032FEDDE700BF00300140FB
:102BD0000008014000B583B0114B9A6942F0010230
:102BE0009A619A6902F001020092009ADA6942F051
:102BF0008052DA61DB6903F080530193019B00226C
:102C00000F216FF0010000F05DFD064A536823F0CC
:102C1000E06343F00073536003B05DF804FB00BF52
:102C2000001002400000014000B589B001460022BA
:102C30001E2000F047FD1E2000F07CFD154BDA69D8
:102C400042F00402DA61DB6903F004030193019BA3
:102C500002A903A802F074FF02F052FF43000E48DD
:102C6000A0FB03239B0C013B0C480D4A026040F281
:102C7000E732C260436000230361836003F0A0FB7E
:102C800018B1012009B05DF804FB044803F068FAAC
:102C9000F8E700BF0010024083DE1B4374130020DE
:102CA00000080040FEE7FEE7FEE7FEE7FEE77047AC
:102CB00008B5024802F0CDF908BD00BF3C2800204D
:102CC00008B5024803F085FA08BD00BF7413002060
:102CD00008B5024803F0C2FF08BD00BF94140020ED
:102CE00008B5024803F0BAFF08BD00BFD8140020A1
:102CF00008B5024803F0B2FF08BD00BF1C15002054
:102D00007047000000B58DB02422002103A807F011
:102D100029F80023019302931348144A0260436088
:102D200083604FF6FF72C2600361436183610323D6
:102D30000393012205920A23079309920B9303A997
:102D400003F096FB50B900230193029301A90648B2
:102D500003F0E0FD28B90DB05DF804FBFFF780FE3D
:102D6000F1E7FFF77DFEF6E7BC130020002C0140E1
:102D700000B58DB02422002103A806F0F3FF002344
:102D80000193029313484FF08042026043608360D6
:102D90004FF6FF72C2600361836103230393012234
:102DA00005920A23079309920B9303A903F060FB92
:102DB00050B900230193029301A9064803F0AAFD2C
:102DC00028B90DB05DF804FBFFF74AFEF1E7FFF705
:102DD00047FEF6E70414002000B58BB000230693ED
:102DE00007930893099303682D4A934205D0B3F1E2
:102DF000804F1DD00BB05DF804FB2A4B9A6942F45A
:102E000000629A619A6902F400620192019A9A69D9
:102E100042F004029A619B6903F004030293029B4F
:102E20004FF44073069306A91F4800F0FFFCE1E74A
:102E300003F50433DA6942F00102DA61DA6902F07B
:102E400001020392039A9A6942F004029A619A6914
:102E500002F004020492049A9A6942F008029A610C
:102E60009B6903F008030593059B4FF40043069309
:102E700006A90D4800F0DAFC082306930023079307
:102E8000089306A9094800F0D1FC094A536823F4C5
:102E9000407343F0E06343F480735360AAE700BFDC
:102EA000002C01400010024000080140000C0140CD
:102EB000000001400268094B9A4200D0704782B07E
:102EC00003F50333DA6942F00202DA61DB6903F0E9
:102ED00002030193019B02B0704700BF0004004051
:102EE00000B587B00023029303930493059302680F
:102EF000114B9A4202D007B05DF804FB03F503338F
:102F00009A6942F008029A619B6903F008030193F1
:102F1000019B1123029302230393059302A90748FF
:102F200000F084FC064A536823F4406343F0E063F6
:102F300043F400635360DEE700040040000C0140EE
:102F40000000014000B58FB000230A930B930C934F
:102F50000D930893099301930293039304930593AC
:102F6000069307932548264A026047224260836001
:102F700040F2E732C2600361836103F021FA50BB83
:102F80004FF480530A930AA91C4803F073FB28BB33
:102F90001A4803F041FA20BB00230893099308A9BB
:102FA000164803F0B7FCF8B960230193002202929F
:102FB0000392059201A9114803F0E8FAB8B9082272
:102FC00001A90E4803F0E2FAA0B90C48FFF788FF08
:102FD0000FB05DF804FBFFF743FDD1E7FFF740FDBD
:102FE000D6E7FFF73DFDD7E7FFF73AFDDCE7FFF750
:102FF00037FDE4E7FFF734FDE7E700BF4C1400209E
:103000000004004008B50A480A4B03604FF4165309
:10301000436000238360C36003610C2242618361CB
:10302000C36103F043FD00B908BDFFF719FDFBE7DD
:10303000941400200038014008B50A480A4B036088
:103040004FF4E133436000238360C36003610C22CB
:1030500042618361C36103F029FD00B908BDFFF738
:10306000FFFCFBE7D81400200044004008B50A48E4
:103070000A4B03604FF4E133436000238360C36075
:1030800003610C2242618361C36103F00FFD00B94B
:1030900008BDFFF7E5FCFBE71C15002000480040D9
:1030A00030B58BB000230693079308930993036808
:1030B000514A934207D0514A93423BD0504A9342DF
:1030C00068D00BB030BD4F4B9A6942F480429A6190
:1030D0009A6902F480420092009A9A6942F00802CA
:1030E0009A619B6903F008030193019B40230693B7
:1030F0000223079303230993434D06A9284600F0B2
:1031000095FB8023069300240794089406A928467B
:1031100000F08CFB3D4A536843F0E06343F0040346
:10312000536022460521252000F0CCFA252000F02E
:1031300001FBC6E7334BDA6942F40032DA61DA693F
:1031400002F400320292029A9A6942F004029A61F1
:103150009B6903F004030393039B04230693022358
:103160000793032309932A4D06A9284600F05EFB26
:103170000823069300240794089406A9284600F023
:1031800055FB22460521262000F09CFA262000F05F
:10319000D1FA96E71B4BDA6942F48022DA61DA69E8
:1031A00002F480220492049A9A6942F008029A6119
:1031B0009B6903F008030593059B4FF48063069316
:1031C00002230793032309930F4D06A9284600F015
:1031D0002DFB4FF40063069300240794089406A97E
:1031E000284600F023FB22460521272000F06AFA3A
:1031F000272000F09FFA64E70038014000440040B7
:103200000048004000100240000C01400000014056
:103210000008014008B5074A136843F01003136023
:10322000032000F03DFA0F20FFF7FEFCFFF7D2FC71
:10323000002008BD00200240034A1168034B1B78A0
:103240000B441360704700BF601500203C00002055
:10325000014B1868704700BF6015002038B5044660
:10326000FFF7F6FF0546B4F1FF3F02D0044B1B7891
:103270001C44FFF7EDFF401BA042FAD338BD00BF4E
:103280003C0000200368D86C7047000030B482B066
:103290000022019290F82420012A00F09180034638
:1032A000012280F824204A68062A2DD80468606B21
:1032B00002EB8202053A4FF01F0C0CFA02FC20EAE6
:1032C0000C000D6805FA02F2024362630A68092ADB
:1032D0003AD91C68E06802EB42021E3A4FF0070C34
:1032E0000CFA02FC20EA0C008D6805FA02F2024397
:1032F000E2600A68103A012A36D90020002283F8D9
:10330000242002B030BC70470C2A0ED80568286B08
:1033100002EB8202233A1F24944020EA04000C6846
:1033200004FA02F202432A63D0E70568E86A02EB76
:103330008202413A1F24944020EA04000C6804FAF7
:1033400002F20243EA62C1E71C68206902EB420212
:103350004FF0070C0CFA02FC20EA0C008D6805FA0D
:1033600002F202432261C4E71A681648824205D07D
:103370009A6A42F020029A620120BFE7906810F436
:10338000000F1BD1906840F4000090600A68102A7A
:1033900001D00020B2E70C4A12680C49A1FB0212CE
:1033A000920C02EB82025200019202E0019A013A71
:1033B0000192019A002AF9D100209FE700209DE7A1
:1033C00002209EE7002401403800002083DE1B43DA
:1033D00030B583B00023019303689A6812F0010F9F
:1033E00033D104469A6842F001029A60184B1B6878
:1033F000184AA2FB03239B0C019302E0019B013BB3
:103400000193019B002BF9D1FFF722FF05462368AA
:103410009B6813F0010F16D1FFF71AFF431B022B15
:10342000F5D923689B6813F0010FF0D1A36A43F02C
:103430001003A362E36A43F00103E362002384F80C
:103440002430012002E0002000E0002003B030BD65
:103450003800002083DE1B4390F82430012B68D015
:1034600010B50446012380F82430FFF7B1FF00288F
:103470005BD1A36A23F4407323F0010343F4807308
:10348000A36223682C4A934227D0A26A22F48012B6
:10349000A2625A6812F4806F05D0A26A22F44052E8
:1034A00042F48052A262A26A12F4805F2BD0E26AD8
:1034B00022F00602E262002284F824206FF0020269
:1034C0001A6023689A6802F46022B2F5602F1DD05A
:1034D0009A6842F480129A602AE0A2F580625268EB
:1034E00012F4702FD1D0A26A42F48012A262134A61
:1034F000526812F4806FD6D0A26A22F4405242F48D
:103500008052A262CFE70022E262D4E70A4A9342E5
:1035100004D09A6842F4A0029A6009E0A2F58062A1
:10352000526812F4702FD3D1F3E7002384F82430CB
:1035300010BD0220704700BF002801400024014058
:1035400038B503689A6812F0010F01D1002038BD28
:1035500004469A6822F001029A60FFF779FE054658
:1035600023689B6813F0010F13D0FFF771FE431B14
:10357000022BF5D923689B6813F0010FF0D0A36AE2
:1035800043F01003A362E36A43F00103E362012006
:10359000DDE70020DBE7000000287BD070B50446A3
:1035A000836A002B4DD02046FFF7CAFFA36A13F0B1
:1035B000100369D1002867D1A26A22F4885222F050
:1035C000020242F00202A2626268E1690A43217BC0
:1035D00042EA4102A568B5F5807F02D0012D36D0C0
:1035E0001D46267D012E35D02668716821F469417B
:1035F000294371602568AE68274931401143A960AD
:10360000A168B1F5807F01D0012902D12369013B76
:103610001B052568E96A21F470010B43EB622368FE
:1036200099681E4B0B409A4225D0A36A23F01203DF
:1036300043F01003A362E36A43F00103E362012055
:1036400027E0C36280F82430FEF7DAFAABE74FF4E4
:103650008075C6E731B9A169013945EA413141F4C4
:103660000065C1E7A16A41F02001A162E16A41F071
:103670000101E162B8E70023E362A36A23F00303D8
:1036800043F00103A36204E0A36A43F01003A362C2
:10369000012070BD01207047FDF7E1FFFE0E1FFF06
:1036A000074AD36823F4E0631B041B0C000200F4F8
:1036B000E060034343F0BF6343F40033D3607047DB
:1036C00000ED00E000B5194BDB68C3F30223C3F142
:1036D000070CBCF1040F28BF4FF0040C03F1040EDB
:1036E000BEF1060F18D9033B4FF0FF3E0EFA0CFC5B
:1036F00021EA0C0199400EFA03F322EA030319436D
:1037000000280BDB0901C9B200F1604000F56140FF
:1037100080F800135DF804FB0023E5E700F00F00DC
:103720000901C9B2024B1954F4E700BF00ED00E0F3
:1037300014ED00E0002807DB00F01F024009012320
:103740009340024A42F82030704700BF00E100E099
:1037500090F82130022B06D004238363002380F8E5
:103760002030012070470268136823F00E031360B5
:103770000268136823F001031360036CC16B01221C
:1037800002FA03F34B6080F82120002380F82030F8
:103790001846704708B590F82130022B03D0042357
:1037A0008363012008BD0268136823F00E031360D1
:1037B0000268136823F0010313600368194A9342F7
:1037C00014D0143293421FD0143293421ED01432BC
:1037D00093421ED0143293421ED01432934202D030
:1037E0004FF0807203E04FF4801200E001220E4B94
:1037F0005A60012380F82130002380F82030436B89
:103800006BB198470020CDE71022F0E74FF48072AB
:10381000EDE74FF48052EAE74FF48032E7E700200B
:10382000C0E700BF080002400000024070B582B04F
:103830000024A446A6E0804DAA4210D007D97F4DAF
:10384000AA420CD005F58035AA4208D013E0A5F5B0
:103850008015AA4203D005F57025AA4207D18A68CF
:10386000002A58D0012A51D04361082403E0A5F56D
:103870008015AA42F3D0BEF1FF0F4ED80646BEF126
:10388000FF0F4CD84FEA8C0233680F25954023EA8E
:10389000050304FA02F2134333604B6813F0805FB0
:1038A0006ED0674B9A6942F001029A619B6903F0FE
:1038B00001030193019B4FEA9C02951C614B53F855
:1038C00025600CF003039D000F23AB4026EA03069E
:1038D0005D4B984229D003F58063984200F08E80BA
:1038E00003F58063984200F08B8003F58063984273
:1038F00019D004231AE0CC68BDE7CC680434BAE7D9
:10390000CC680834B7E7CC680C34B4E7036108240A
:10391000B1E70024AFE70424ADE7061DAFE7ACF143
:1039200008029200B0E7032300E00023AB403343DA
:103930000232444D45F822304B6813F4803F61D089
:10394000424A136843EA0E0313604B6813F4003FC6
:103950005ED03E4A536843EA0E0353604B6813F44B
:10396000801F5BD0394A936843EA0E0393604B682B
:1039700013F4001F58D0354AD36843EA0E03D360CE
:103980000CF1010C0A6832FA0CF353D0012303FA4C
:103990000CF302EA030E33EA0202F1D14A68122A5A
:1039A0003FF649AF122A3FF666AF01A555F822F05F
:1039B0005F380008F738000801390008133900089B
:1039C000773800087738000877380008773800081B
:1039D000773800087738000877380008773800080B
:1039E00077380008773800087738000877380008FB
:1039F00077380008FB38000807390008012395E7ED
:103A0000022393E7114A136823EA0E0313609CE72D
:103A10000E4A536823EA0E0353609FE70B4A9368EC
:103A200023EA0E039360A2E7084AD36823EA0E0351
:103A3000D360A5E702B070BD000022100000311075
:103A40000010024000000140000801400004014055
:103A50008368194201D001207047002070470AB1E5
:103A60000161704709040161704703685A6912F4E3
:103A7000806F01D1002070476FF480625A6100238B
:103A80000363202280F83D2080F83E30026C42F033
:103A90000402026480F83C30012070472DE9F041B7
:103AA00007460D4690461E4624E0FFF7D1FB069BD5
:103AB000C01AB04200D8EEB900233B63202287F839
:103AC0003D2087F83E303A6C42F020023A6487F895
:103AD0003C3001201EE03B689C6925EA040C1FFA7B
:103AE0008CFCBCFA8CFC4FEA5C1CE04511D1B6F1B1
:103AF000FF3FDAD1C5F30743012BECD13B685B698B
:103B000025EA030C1FFA8CFCBCFA8CFC4FEA5C1C07
:103B1000EBE70020BDE8F0812DE9F04105460E46B7
:103B2000174698463DE01A6842F400721A602B6806
:103B30006FF480625A6100232B63202285F83D20B8
:103B400085F83E302A6C42F004022A6485F83C3045
:103B5000012034E0FFF77CFBA0EB0800B84200D85E
:103B6000FFB900232B63202285F83D2085F83E30E5
:103B70002A6C42F020022A6485F83C3001201EE0C5
:103B80002B689C6926EA0404A4B2003C18BF0124F7
:103B9000A4B12B685A6912F4806FC4D1B7F1FF3F0A
:103BA000D8D1C6F30743012BEAD12B685C6926EA1A
:103BB0000404A4B2003C18BF0124E9E70020BDE8DA
:103BC000F08170B504460D46164623685B6913F014
:103BD000800F1CD12046FFF748FFD0B9B5F1FF3F59
:103BE000F3D0FFF735FB801BA84201D8002DECD1A4
:103BF00000232363202284F83D2084F83E30226C89
:103C000042F02002226484F83C30012000E00020D1
:103C100070BD0120FCE700002DE9F04385B00446AB
:103C20000D4691461F46DDF830800D9E03681968E9
:103C300041F4807119600096434600224FF0011153
:103C4000FFF72CFF60B9236805F0FE051D613346C0
:103C5000424626492046FFF75FFF68B1012008E091
:103C600023681B6813F4807F02D04FF40073236431
:103C7000032005B0BDE8F0830023039323685A694D
:103C800003929B690393039B324641462046FFF70C
:103C900098FF30B9012F0FD123685FFA89F61E61B2
:103CA000E7E7236C042B01D00120E2E722681368C8
:103CB00043F400731360F7E723684FEA19221A618F
:103CC000324641462046FFF77CFF20B923685FFA61
:103CD00089F61E61CDE7236C042B01D00120C8E7D3
:103CE0002268136843F400731360F7E702000100D1
:103CF0002DE9F04784B004460D46164699460C9FC0
:103D0000DDF834800268136843F48063136003684D
:103D1000196841F480711960CDF800803B4600229B
:103D20004FF00111FFF7BAFE70B95FFA85FA236808
:103D300005F0FE051D6143463A4641492046FFF71E
:103D4000EBFE68B1012008E023681B6813F4807F54
:103D500002D04FF400732364032004B0BDE8F08761
:103D60000023039323685A6903929B690393039B7F
:103D7000424639462046FFF724FF80B9B9F1010FCA
:103D800018D12368F6B21E61424639462046FFF735
:103D900018FF68B3236C042B24D00120DDE7236CCB
:103DA000042B01D00120D8E72268136843F4007384
:103DB0001360F7E72368320A1A6142463946204603
:103DC000FFF7FFFE18B92368F6B21E61DCE7236C2B
:103DD000042B01D00120C0E72268136843F400736C
:103DE0001360F7E72268136843F400731360D4E7A5
:103DF0002268136843F480731360CDF800803B465B
:103E000000224FF001112046FFF748FE68B92268F2
:103E10004AF00103136143463A4609492046FFF739
:103E20007BFE002899D0012097E723681B6813F4D4
:103E3000807F02D04FF40073236403208DE700BF1E
:103E40000200010070B504460D46164623685B6902
:103E500013F0040F1CD12046FFF707FED0B9B5F1CF
:103E6000FF3FF3D0FFF7F4F9801BA84201D8002DE3
:103E7000ECD100232363202284F83D2084F83E30D7
:103E8000226C42F02002226484F83C30012000E0E1
:103E9000002070BD0120FCE770B505460C461646B3
:103EA0002B68596911F0400F29D1596911F0100F91
:103EB00015D1FFF7CDF9801BA04201D8002CEFD11E
:103EC00000232B63202285F83D2085F83E302A6CA4
:103ED00042F020022A6485F83C30012070BD6FF06A
:103EE00010025A6100232B63202285F83D2085F8BB
:103EF0003E302A6C2A6485F83C300120EEE7002031
:103F0000ECE70000002800F0CC8070B5044690F883
:103F10003D30002B77D0242384F83D30226813688D
:103F200023F0010313602268136843F40043136015
:103F30002268136823F40043136001F0E1FD626816
:103F40005A4B9A4264D85A4B98428CBF00230123A3
:103F5000002B40F0A8805749A1FB00318B0C25684D
:103F60006A6822F03F0242EA91426A6021680A6A66
:103F700022F03F0266684D4DAE424FD801331343E5
:103F80000B622168CA6922F44F4222F0FF02666880
:103F9000464B9E424CD8431E7600B3FBF6F30133EA
:103FA00040F6FC70034278D0C3F30B031343CB619C
:103FB00021680B6823F0C003E269206A02431343BF
:103FC0000B6021688B6823F4034323F0FF0322690D
:103FD000E068024313438B602168CB6823F0FF0342
:103FE0006269A06902431343CB602268136843F0FF
:103FF0000103136000202064202384F83D302063F7
:1040000084F83E0070BD80F83C30FEF7E1FC82E7AA
:10401000294B98428CBF0023012399E74FF49675F2
:1040200005FB03F3254DA5FB03539B090133A6E7CD
:10403000A368BBB9451E06EB460CB5FBFCF5013584
:10404000C5F30B05B5FA85F56D0945BBC3B9013854
:1040500006EB4603B0FBF3F30133C3F30B0343F466
:104060000043A3E7451E06EB860C0CEB8C0CB5FB5E
:10407000FCF50135C5F30B05B5FA85F56D09E4E7E7
:10408000013806EB860303EB8303B0FBF3F3013344
:10409000C3F30B0343F4404388E7042386E701237B
:1040A00084E7012070470120ACE700BFA086010033
:1040B0007F841E0083DE1B43FF083D00D34D62104A
:1040C0002DE9F04383B004460F46904699460C9E76
:1040D000FFF7BEF8054694F83D00C0B2202803D093
:1040E000022003B0BDE8F0830095192301224B495B
:1040F0002046FFF7D3FC002840F0898094F83C303C
:10410000012B00F08680012384F83C3023681A6874
:1041100012F0010F03D11A6842F001021A602268FE
:10412000136823F400631360212384F83D30402397
:1041300084F83E30002323640A9B6362BDF82C3070
:104140006385638D2385364BE362019500964B466C
:10415000424639462046FFF75FFD00285BD1238D9C
:10416000002B35D02A4631462046FFF72AFD20BBDA
:10417000626A236812781A61626A531C6362218D35
:10418000013989B22185638D9BB2013B9BB2638566
:104190002368586910F0040FE1D00029DFD052786D
:1041A0001A61636A01336362238D013B2385638D4A
:1041B0009BB2013B9BB26385D1E7236C042B01D0FA
:1041C00001208EE72268136843F400731360F7E759
:1041D0002A4631462046FFF735FE50B1236C042BAA
:1041E00001D001207DE72268136843F40073136057
:1041F000F7E72268136843F400731360202384F800
:104200003D30002384F83E3084F83C3069E70220DA
:1042100067E7022065E7012063E700BF02001000A6
:104220000000FFFF2DE9F04389B004460F46904699
:104230009946129E00230793FFF70AF8054694F863
:104240003D00C0B2202804D00227384609B0BDE89E
:10425000F08300951923012281492046FFF71EFCB7
:10426000002840F0728194F83C30012B00F06F81FF
:10427000012384F83C3023681A6812F0010F03D13F
:104280001A6842F001021A602268136823F400637E
:104290001360222384F83D30402384F83E3000230D
:1042A0002364109B6362BDF844306385638D23856E
:1042B0006C4BE362019500964B46424639462046D8
:1042C000FFF716FD0746002840F04381238D5BB9B8
:1042D000039323685A6903929A690392039A1A68AE
:1042E00042F400721A60EDE0012B0FD0022B21D0B6
:1042F0002268136843F480631360002306932368E5
:104300005A6906929B690693069BDBE02268136854
:1043100023F48063136072B60023049323685A6900
:1043200004929A690492049A1A6842F400721A601C
:1043300062B6C7E02268136843F40063136072B684
:104340000023059323685A6905929A690592059A94
:104350001A6822F480621A6062B6B3E02A463146D7
:104360002046FFF799FD002840F0F58023681A6980
:10437000636A1A70636A01336362238D013B23858C
:10438000638D9BB2013B9BB263859BE000953346F6
:10439000002235492046FFF781FB002840F0DF80EE
:1043A0002268136823F48063136072B623681A6965
:1043B000636A1A70636A01336362238D013B23854C
:1043C000638D9BB2013B9BB26385284B1B68DB0866
:1043D000274AA2FB03231B0A03EB8303C3EBC3039C
:1043E0000793079B013B0793079B002B28D023686B
:1043F0005A6912F0040FF4D01A6842F400721A607D
:1044000023681A69636A1A70636A01336362238DD1
:10441000013B2385638D9BB2013B9BB2638562B6F2
:1044200023681A69636A1A70636A01336362238DB1
:10443000013B2385638D9BB2013B9BB2638541E0C9
:104440002363202284F83D2084F83E30226C42F021
:104450002002226462B684F83C300127F5E600BFF2
:10446000020010000000FFFF0400010038000020DF
:1044700089B5F8142A4631462046FFF70DFD00287D
:104480006FD123681A69636A1A70626A531C636287
:10449000238D013B2385638D9BB2013B9BB26385DA
:1044A0002368596911F0040F0CD01B695370636ABB
:1044B00001336362238D013B2385638D9BB2013BF6
:1044C0009BB26385238D002B36D0032BD2D8012BD2
:1044D0003FF444AF022B7FF459AF009533460022DE
:1044E00021492046FFF7DAFA002836D172B6226851
:1044F000136843F40073136023681A69636A1A70BF
:10450000636A01336362238D013B2385638D9BB214
:10451000013B9BB2638562B623681A69636A1A70AD
:10452000636A01336362238D013B2385638D9BB2F4
:10453000013B9BB26385C5E7202384F83D3000230F
:1045400084F83E3084F83C307FE602277DE602277F
:104550007BE6012779E6012777E6012775E6012743
:1045600073E6012771E600BF0400010038B512F4BC
:10457000804F44D00468B4F850309BB291F800C02A
:1045800003EBCC03023304EB4303B3F80044C4F35E
:1045900009048B69A34228D31B1B8B618B697BB9F0
:1045A000056835F82C309BB223F4804323F0700368
:1045B00083F4005343F4004343F0800325F82C3088
:1045C00012F0400F0ED002680D7832F825309BB201
:1045D00023F4E04323F0700343F4004343F0C003AB
:1045E00022F8253024B9204638BD00238B61D5E759
:1045F00023460A894969006803F030FCF3E7046840
:10460000B4F850309BB291F800C003EBCC030633F2
:1046100004EB4303B3F80044C4F309048B69A342D9
:104620002FD31B1B8B618B697BB9056835F82C3048
:104630009BB223F4804323F0700383F4005343F4CC
:10464000004343F0800325F82C3012F0400F0FD1C7
:10465000026891F800C032F82C309BB223F4E0439A
:1046600023F0700343F4004343F0C00322F82C30DE
:10467000002CB8D023464A894969006803F0EEFB54
:10468000B1E700238B61CEE770B586B0002800F05B
:104690008580044690F8A932EBB1032384F8A9324F
:1046A000206802F024FC254655F8106BEC460FCD2F
:1046B000ACE80F002B68CCF80030231D0ECB304641
:1046C00002F005FC054658B1022384F8A932012501
:1046D000284606B070BD80F8A83205F0DDF9DCE7A9
:1046E0000021206802F00DFC2B461AE05A1C02EB58
:1046F000820104EBC1010120487002EB820104F841
:10470000313003EB830104EBC101CB8602EB820C59
:1047100004EBCC0C00208CF803008863C8630864A9
:10472000D3B261688B42E1D316E005EB850304EB5D
:10473000C303002283F8692183F8685183F86B2151
:10474000C3F87821C3F87C2105EB850304EBC30390
:10475000C3F880210135EDB2A942E6D8254655F8C7
:10476000106BEC460FCDACE80F002B68CCF8003096
:10477000231D0ECB304602F0C6FB054620B10223B6
:1047800084F8A9320125A3E7002384F8243001230B
:1047900084F8A932206802F0ECFE99E7012597E73A
:1047A00038B590F8A832012B11D00446012580F8C5
:1047B000A852006802F092FB2946204605F081FAD3
:1047C000206802F0D4FE002084F8A80238BD022040
:1047D000FCE770B505460C46164612F0400F00F097
:1047E0000D810268B2F850309BB2097803EBC10327
:1047F000023302EB4303B3F80024C2F30902A369B6
:10480000934252D99B1AA361A369002B6AD16378A2
:10481000002B4DD12B68B3F8502092B2134403EB18
:104820000111B1F804349BB223F4F8439BB2A1F810
:104830000434B1F804346FEA43436FEA53439BB244
:10484000A1F804342B686278002A3ED1B3F85020D6
:1048500092B21344227803EB0213B3F80C2492B201
:1048600022F4F84292B2A3F80C24B3F80C246FEAB5
:1048700042426FEA524292B2A3F80C2421782846B1
:1048800005F03EF916F4804F41D02A68217832F8BD
:1048900021309BB223F4E04323F0700343F4404300
:1048A00043F0800322F8213031E00023A361ABE71D
:1048B000012BC7D12B68B3F8502092B2134403EBFD
:1048C00001110023A1F80434BCE7012AD6D1B3F8C2
:1048D000502092B21344227803EB02130022A3F873
:1048E0000C24CBE716F4804F0DD0286830F8213027
:1048F0009BB223F4E04323F0700343F4404343F0BE
:10490000800320F8213094F82430012B12D02A683B
:10491000217832F821309BB223F4E04323F04003A6
:1049200083F0300343F4004343F0800322F8213046
:10493000002070BD636913446361E3691344E3615C
:10494000216A236999421FD3C91A21626278002A19
:104950003FD12A68B2F8501089B20A44217802EB9C
:104960000112EBB9B2F8041489B221F4F84189B20A
:10497000A2F80414B2F804146FEA41416FEA5141FD
:1049800089B2A2F8041426E021B9002384F8243067
:104990001346DBE7002384F8243023620B46D5E777
:1049A0003E2B09D8590813F0010F00D001318902BC
:1049B00089B2A2F804140EE0590913F01F0F00D1B8
:1049C00001396FEAC1616FEA514189B2A2F804145A
:1049D00001E0012A06D09BB222896169286802F0B1
:1049E000D0FD94E72A68B2F8501089B20A442178C1
:1049F00002EB011299B2A2F80414ECE70268B2F8D3
:104A000050309BB2097803EBC103063302EB43033A
:104A1000B3F80024C2F30902A369934253D39B1A4B
:104A2000A361A369002B6BD16378002B4ED12B6857
:104A3000B3F8502092B2134403EB0111B1F80434DF
:104A40009BB223F4F8439BB2A1F80434B1F80434C8
:104A50006FEA43436FEA53439BB2A1F804342B68D7
:104A60006278002A3FD1B3F8502092B213442278E2
:104A700003EB0213B3F80C2492B222F4F84292B280
:104A8000A3F80C24B3F80C246FEA42426FEA5242B6
:104A900092B2A3F80C242178284605F031F816F4D8
:104AA000804F7FF434AF2A68217832F821309BB2EE
:104AB00023F4E04323F0700343F4404343F08003C6
:104AC00022F8213023E70023A361AAE7012BC6D1F6
:104AD0002B68B3F8502092B2134403EB011100236A
:104AE000A1F80434BBE7012AD5D1B3F8502092B223
:104AF0001344227803EB02130022A3F80C24CAE724
:104B000016F4804F0DD1286830F821309BB223F481
:104B1000E04323F0700343F4404343F0800320F864
:104B2000213094F82430012B7FF4F1AE63691344F3
:104B30006361E3691344E361216A236999421FD3E6
:104B4000C91A21622A68617800293ED1B2F8501052
:104B500089B20A44217802EB0112EBB9B2F80C14C5
:104B600089B221F4F84189B2A2F80C14B2F80C14FD
:104B70006FEA41416FEA514189B2A2F80C1426E074
:104B800021B9002384F824301346DBE70023236295
:104B900084F824300B46D5E73E2B09D8590813F08A
:104BA000010F00D00131890289B2A2F80C140EE085
:104BB000590913F01F0F00D101396FEAC1616FEA83
:104BC000514189B2A2F80C1401E0012906D09BB230
:104BD00062896169286802F0D4FC98E6B2F8501046
:104BE00089B20A44217802EB011299B2A2F80C149E
:104BF000EDE72DE9F04105462868B0F8443013F49C
:104C0000004F00F00F82B0F84440A3B214F00F043C
:104C100040F0D88013F0100F61D003889AB213F4DB
:104C2000006F40F0938012F4004FE5D0038823F02A
:104C300070031B051B0D43F0800303802868B0F848
:104C400050309BB295F8682103EBC203063300EBAA
:104C50004303B3F80034C3F30903C5F884318BB1BF
:104C6000D5F87C1171B1B5F86E2103F0F7F8D5F8DD
:104C70008421D5F87C311344C5F87C3100212846C5
:104C800004F032FF2B681A8812F4006FB4D1B3F825
:104C9000502092B21344D5F87821002A79D1B3F884
:104CA0000C2492B222F4F84292B2A3F80C24B3F886
:104CB0000C246FEA42426FEA524292B2A3F80C24EB
:104CC0002A6813889BB223F4804323F0700383F493
:104CD000405343F4004343F0800313808CE7038880
:104CE0009BB223F4E14323F070036FEA43436FEA7E
:104CF00053439BB203802A68B2F850309BB295F8B8
:104D0000281003EBC103023302EB4303B3F8003472
:104D1000C3F309036B64EA6B1344EB630021284679
:104D200004F0EEFE95F82430002B3FF465AF2B6CB9
:104D3000002B7FF461AF95F824302A6843F080039C
:104D4000A2F84C30002385F8243055E7B0F85030F5
:104D50009BB295F8682103EBC203063300EB4303D3
:104D6000B3F80034C3F30903C5F88431B5F86E21F4
:104D700005F52C7103F072F82A68138823F070038C
:104D80001B051B0D43F080031380284604F0A4FE8E
:104D900032E73E2A09D8510812F0010F00D0013144
:104DA0008A0292B2A3F80C248AE7510912F01F0F6D
:104DB00000D101396FEAC1626FEA524292B2A3F8A0
:104DC0000C247DE730F824309EB213F4004F4FD10D
:104DD00016F0800F3FF410AF621C02EB820105EB6E
:104DE000C101286830F824309BB223F4E14323F05A
:104DF00070036FEA43436FEA53439BB220F82430B9
:104E0000CB78032B07D033B1022B40F0068116F488
:104E1000807F40F002812868B0F850309BB2621C5D
:104E200002EB820215F8326003EBC603023300EB9B
:104E30004303B3F80034C3F3090304EB840205EB26
:104E4000C202126C9A4240F2D48004EB840705EB54
:104E5000C707D21A3A6404EB840205EBC202126C53
:104E6000002A40F0CD803146284604F049FEC3E6D2
:104E700030F8243023F070031B051B0D43F0800332
:104E800020F8243004EB8401C90001F5B47105EB6E
:104E9000010804EB840305EBC30393F87431002B82
:104EA00042D12868B0F850309BB204EB840205EB85
:104EB000C20292F8682103EBC203063300EB4303FE
:104EC000B3F80074C7F3090717BB04EB840305EBC1
:104ED000C303D3F884213A44C3F88421D3F87C2156
:104EE0003A44C3F87C21D3F880313BB104EB84030E
:104EF00005EBC303D3F878319F4275D204EB8403EA
:104F000005EBC30393F86811284604F0EDFD5FE755
:104F100004EB840105EBC1013B46B1F86E21D1F8E9
:104F20007C1102F09BFFD0E704EB840305EBC30385
:104F300093F86B31022B35D0296804EB840205EB22
:104F4000C20292F8680131F820309BB223F4E043AA
:104F500023F0700343F4004343F0C00321F82030F2
:104F6000286892F8682130F8223013F4804F20D05E
:104F7000B0F850309BB203EBC203023300EB4303A3
:104F8000B3F80074C7F30907002F9ED004EB840127
:104F900005EBC1013B46B1F87021D1F87C1102F05C
:104FA0005DFF92E7324641462846FFF7DFFA0746A3
:104FB0008BE7B0F850309BB203EBC203063300EB33
:104FC0004303B3F80074C7F30907002F3FF47DAF24
:104FD00004EB840105EBC1013B46B1F87221D1F825
:104FE0007C1102F03BFF70E74146286802F0DDFAD1
:104FF000EEE604EB840205EBC202002717642AE701
:1050000004EB840205EBC202D66B1E44D663546CDB
:105010002344536402F0C9FAEEE532462846FFF70E
:10502000D8FBE9E50020BDE8F08190F8A832012B1B
:105030000DD010B50446012380F8A83280F8241062
:10504000006802F08EFA002084F8A80210BD022049
:10505000704710B584B00446006802F08CFA10F472
:10506000004F47D1206802F086FA10F4806F45D1D6
:10507000206802F080FA10F4804F08D02268B2F85D
:1050800044309BB223F480439BB2A2F844302068A2
:1050900002F071FA10F4005F08D02268B2F84430D0
:1050A0009BB223F400539BB2A2F84430206802F074
:1050B00062FA10F4805F32D1206802F05CFA10F4DA
:1050C000006F78D1206802F056FA10F4007F40F0AB
:1050D0009D80206802F04FFA10F4807F08D022688B
:1050E000B2F844309BB223F480739BB2A2F84430F0
:1050F00004B010BD2046FFF77CFDB3E72268B2F88C
:1051000044309BB223F480639BB2A2F84430204623
:1051100004F007FD00212046FFF787FFA8E722687B
:10512000B2F840309BB223F004039BB2A2F84030A7
:105130002268B2F840309BB223F008039BB2A2F879
:105140004030204604F010FD2268B2F844309BB293
:1051500023F480539BB2A2F84430ADE7226832F8C2
:10516000231004AA02EB430222F8101C0133DBB225
:10517000072BF3D92268B2F840309BB243F0010309
:10518000A2F840302268B2F840309BB223F001030D
:105190009BB2A2F840302368B3F8442012F4806F29
:1051A000F9D0B3F8442092B222F4806292B2A3F80C
:1051B000442000230BE00023DAE7226804A901EB76
:1051C000430131F8101C22F823100133DBB2072B06
:1051D000F3D92268B2F840309BB243F00803A2F83A
:1051E00040302268B2F844309BB223F400639BB293
:1051F000A2F844302268B2F840309BB243F0040376
:10520000A2F84030204604F09FFC5BE72268B2F829
:1052100044309BB223F400739BB2A2F84430204682
:1052200004F079FC55E710B504468C4611F0800F68
:105230002AD101F0070000EB8001C90001F5B47E1E
:1052400004EB0E0100EB800004EBC0004FF0000EF9
:1052500080F869E10CF0070C81F800C00A61CB709E
:105260004A780AB1A1F80EC0022B19D094F8A832DE
:10527000012B18D0012384F8A832206801F054FED5
:10528000002084F8A80210BD01F00700013000EBF7
:10529000800104EBC1014FF0010E81F801E0D9E774
:1052A00000230B71E2E70220EDE710B504460B4640
:1052B00011F0800F1FD101F0070202EB8201C9003B
:1052C00001F5B471014402EB820200EBC20200203E
:1052D00082F8690103F007030B7094F8A832012BE0
:1052E00013D0012384F8A832206801F0D9FF0020F0
:1052F00084F8A80210BD01F00702013202EB82011E
:1053000000EBC10101204870E4E70220F2E710B58C
:1053100001F0070404EB8401C90001F5B4710144F4
:1053200004EB840C00EBCC0CCCF87C21CCF8803165
:105330000023CCF884318CF869318CF8684124B9A9
:10534000006802F032F9002010BD006802F02DF96B
:10535000F9E701F0070101EB810100EBC101D1F890
:105360008401704710B501F0070404F1010C0CEB47
:105370008C0100EBC10104EB840E00EBCE0ECEF8E5
:105380003C20CEF8403001228EF84C20CEF8483038
:105390000023CEF844304A700CEB8C0C00F83C40F3
:1053A00024B9006802F001F9002010BD006802F085
:1053B000FCF8F9E738B501F007054268954231D8A5
:1053C00004460B4611F0800F1ED101EB8101C9008C
:1053D00001F5B471014403EB830300EBC303002226
:1053E00083F8692101238B700D7094F8A832012B8A
:1053F0001AD0012384F8A832206802F03CF85DB18D
:10540000002084F8A80238BD6B1C03EB830100EB7D
:10541000C10101224A70E5E704F52C71206802F011
:10542000AEF8EDE70120EEE70220ECE70B4601F0D5
:105430000F014268914230D810B5044613F0800F36
:1054400021D103F0070202EB8201C90001F5B4711A
:10545000014402EB820200EBC202002082F86901E3
:1054600000228A7003F007030B7094F8A832012B16
:1054700015D0012384F8A832206802F021F800201A
:1054800084F8A80210BD03F00702013202EB82018A
:1054900000EBC10101204870E2E7012070470220C3
:1054A000F0E711F0800F0BD001F00701013101EBA3
:1054B000810100EBC10152B90A73CB800020704713
:1054C00001EB8101C90001F5B4710144F3E7012248
:1054D0000A730B811B0C4B81F0E7000082B0084B74
:1054E0001B68084AA2FB03235B0A00FB03F301933A
:1054F00000BF019B5A1E0192002BF9D102B07047E8
:1055000038000020D34D6210002800F0F18170B502
:1055100082B00446036813F0010F2CD0994B5B68EE
:1055200003F00C03042B1DD0964B5B6803F00C03B7
:10553000082B12D06368B3F5803F41D0002B55D1C2
:1055400003F1804303F504331A6822F480321A60B1
:105550001A6822F480221A6037E08A4B5B6813F4E1
:10556000803FE7D0874B1B6813F4003F03D063688C
:10557000002B00F0BF81236813F0020F75D0814B20
:105580005B6813F00C0F5FD07E4B5B6803F00C037D
:10559000082B54D02369002B00F08A807A4B01221B
:1055A0001A60FDF755FE0546764B1B6813F0020F97
:1055B00075D1FDF74DFE401B0228F5D903209EE171
:1055C000704A136843F480331360636843B3FDF794
:1055D0003FFE05466B4B1B6813F4003FCBD1FDF734
:1055E00037FE401B6428F5D9032088E1B3F5A02FCE
:1055F00009D0644B1A6822F480321A601A6822F4C7
:1056000080221A60E1E703F18043A3F53C331A6876
:1056100042F480221A601A6842F480321A60D4E799
:10562000FDF716FE0546574B1B6813F4003FA2D04A
:10563000FDF70EFE401B6428F5D903205FE1514BB6
:105640005B6813F4803FA5D14E4B1B6813F0020F2B
:1056500003D02369012B40F04F814A4A136823F09D
:10566000F803616943EAC1031360236813F0080F6C
:1056700033D0A369002B5CD0434B0122C3F88024B4
:10568000FDF7E6FD05463F4B5B6A13F0020F21D1A3
:10569000FDF7DEFD401B0228F5D903202FE1394A32
:1056A000136823F0F803616943EAC1031360DCE780
:1056B000354B00221A60FDF7CBFD0546314B1B68C8
:1056C00013F0020FD1D0FDF7C3FD401B0228F5D91E
:1056D000032014E10120FFF701FF236813F0040FFA
:1056E00000F09680274BDB6913F0805F34D1254BA7
:1056F000DA6942F08052DA61DB6903F0805301938A
:10570000019B0125214B1B6813F4807F26D0E368A1
:10571000012B3DD0002B53D103F1804303F504331B
:105720001A6A22F001021A621A6A22F004021A624C
:1057300033E0154B0022C3F88024FDF789FD0546B0
:10574000104B5B6A13F0020FC7D0FDF781FD401BC1
:105750000228F5D90320D2E00025D3E70B4A1368CD
:1057600043F480731360FDF773FD0646074B1B6817
:1057700013F4807FCBD1FDF76BFD801B6428F5D936
:105780000320BCE0001002400000424200700040D4
:105790005F4A136A43F001031362E36833B3FDF712
:1057A00057FD06465A4B1B6A13F0020F2FD1FDF727
:1057B0004FFD801B41F288339842F3D903209EE0CD
:1057C000052B09D0524B1A6A22F001021A621A6A9A
:1057D00022F004021A62E0E74D4B1A6A42F004021A
:1057E0001A621A6A42F001021A62D6E7FDF730FD2A
:1057F0000646474B1B6A13F0020F08D0FDF728FD41
:10580000801B41F288339842F3D9032077E0E5B951
:10581000E369002B72D03E4A526802F00C02082A5B
:1058200056D0022B17D03B4B00221A66FDF710FD15
:105830000446374B1B6813F0007F47D0FDF708FD87
:10584000001B0228F5D9032059E0314AD36923F01F
:105850008053D361DCE72F4B00221A66FDF7F8FC7A
:1058600005462B4B1B6813F0007F06D0FDF7F0FCBC
:10587000401B0228F5D9032041E0236AB3F5803F9D
:105880001AD023494B6823F47413226A606A0243D6
:1058900013434B601F4B01221A66FDF7D9FC0446E7
:1058A0001B4B1B6813F0007F0ED1FDF7D1FC001BD2
:1058B0000228F5D9032022E0154A536823F4003367
:1058C000A1680B435360DCE7002018E0002016E0DD
:1058D000012B16D00E4B5B6803F48031226A914293
:1058E00011D103F47013626A93420ED1002006E0D6
:1058F00001207047012002E0012000E0002002B0FA
:1059000070BD0120FBE70120F9E70120F7E700BFA8
:10591000001002400000424286B0174B0FCB0DF141
:10592000180C0CE90F0040F20123ADF80430134BC2
:105930005B6803F00C02082A02D0114806B07047D9
:10594000C3F3834218326A4412F8100C13F4803FF8
:105950000DD00A4B5B68C3F3404318336B4413F814
:10596000143C074A02FB00F0B0FBF3F0E6E7054BFE
:1059700003FB00F0E2E700BF28B20008001002407D
:1059800000127A0000093D00002800F0A08070B5E8
:105990000D460446524B1B6803F007038B420BD2A3
:1059A0004F4A136823F007030B431360136803F097
:1059B00007038B4240F08D80236813F0020F17D04D
:1059C00013F0040F04D0474A536843F4E063536074
:1059D000236813F0080F04D0424A536843F460531D
:1059E0005360404A536823F0F003A1680B435360AF
:1059F000236813F0010F31D06368012B20D0022BF4
:105A000025D0384A126812F0020F64D035494A682E
:105A100022F0030213434B60FDF71AFC0646314B9C
:105A20005B6803F00C036268B3EB820F16D0FDF7DE
:105A30000FFC801B41F288339842F0D9032045E0E7
:105A4000284A126812F4003FE0D101203EE0254AC6
:105A5000126812F0007FD9D1012037E0204B1B687B
:105A600003F00703AB420AD91D4A136823F007036A
:105A70002B431360136803F00703AB422DD1236857
:105A800013F0040F06D0174A536823F4E063E1686B
:105A90000B435360236813F0080F07D0114A536873
:105AA00023F46053216943EAC1035360FFF734FFD5
:105AB0000C4B5B68C3F303130B4AD35CD8400B4B0E
:105AC00018600B4B1868FDF7AFF8002070BD01207F
:105AD00070470120FAE70120F8E70120F6E700BF50
